:040000008BEF01F091
:1000080000C015F0F2A20DD0F2923C0E0001986FDC
:10001800010E996FC20ED76EF70ED66ED58ECD90A3
:10002800AA81F0A00ED00001F0900A0E976F866B9F
:10003800020E996F0B0ECF6EDC0ECE6ECD80D59E64
:10004800AA81F2A416D00001F294C20ED76EF70E60
:10005800D66E9951010A0DE19851000806E29805FB
:10006800006E00C098F0AA8104D0030E996FD59E47
:10007800AA819EA01FD000019E900B0ECF6EDC0EB1
:10008800CE6E9951020A16E18651010F006E00C02A
:1000980086F0040E865D0EE3866B9751000806E233
:1000A8009705006E00C097F0AA8104D0030E996FDF
:0A00B800CD90AA8115C000F01100E0
:0A00C200210E0D6E0D2EFED7120068
:1000CC000F0E0C6E470E0D6E0D2EFED70C2EFCD7A0
:0600DC000000000012000C
:0600E20000000000120006
:1000E8000001B4BF02D08C9601D08C86B4BD02D07A
:1000F8008C9401D08C84B4BB02D08C9201D08C82B9
:10010800B4B902D08C9001D08C80AAB302D08C886C
:1001180001D08C988C8AE1DF8C9AB4B702D08C9687
:1001280001D08C86B4B502D08C9401D08C84B4B341
:1001380002D08C9201D08C82B4B102D08C9001D0C4
:100148008C80AAB302D08C8801D08C988C8AC5DFA9
:0E0158008C9AAAA302D0B6DF01D0AFDF12004E
:0E0166000001AA93B3C0B4F0BCDFAA8312005C
:10017400086A080E0C6E003408360450085ED8B0C5
:0E01840002D00826D89000360C2EF5D71200B7
:10019200959A959895909592959495968C9A8C9817
:1001A2008C968C948C928C9090DF8FDF8EDF8C8279
:1001B2008C808C8A95DF8C9A88DF8C8A91DF8C9A6E
:1001C20084DF8C8A8DDF8C9A80DF8C908C8A88DF2A
:1001D2008C9A7BDF8C8A84DF8C9A8C928C868C8AB8
:1001E2007FDF8C9A72DF8C968C808C8A79DF8C9A76
:1001F2008C908C8A75DF8C9A68DF8C8A71DF8C9A7E
:100202008C808C8A6DDF8C9A60DF8C908C8A68DFA0
:100212008C9A8C868C848C828C808C8A61DF8C9AFE
:0802220054DF0001AA83120061
:10022A000900F5CFE6FF0006FBE10106F9E112003D
:10023A0010D0800E0001AE6F1AD0C00EAE6F17D06C
:10024A00940EAE6F14D0D40EAE6F11D0800EAE6F76
:10025A000ED00001AE51010AECE0AE51020AEDE007
:10026A00AE51030AEDE0AE51040AEDE0EFD7AF0557
:10027A00006EAE51002600C0AEF0AA8300C0B4F0F2
:0E028A002EDFAA93B0C0B4F02ADFAA831200C0
:1002980010D0800E0001AE6F1AD0C00EAE6F17D00E
:1002A800940EAE6F14D0D40EAE6F11D0800EAE6F18
:1002B8000ED00001AE51010AECE0AE51020AEDE0A9
:1002C800AE51030AEDE0AE51040AEDE0EFD7AF05F9
:1002D800006EAE51002600C0AEF000C0B4F000DFE2
:1002E800AA93B26BB251B025E96E000EB121EA6E45
:1002F800EE520BE0B251B025E96E000EB121EA6E64
:0E030800EECFB3F02CDFB22BEDD7AA8312009C
:10031600AEEC02F00F0EC16E070EB46E93809382A0
:10032600060ED56EB00ECD6EF18CF18AF292F28881
:10033600F090F086F294F28A9E909D80F28CF28E76
:10034600030E0B6E080E0C6E770E0D6E0D2EFED77D
:100356000C2EFCD70B2EFAD719DF0C0EB46FC1DEAC
:10036600030E0B6E080E0C6E770E0D6E0D2EFED75D
:100376000C2EFCD70B2EFAD7010EAE6F010EAF6F07
:10038600870EB06F000EB16F84DFAAA198D0AA9134
:100396001A0E0C6EF80E0D6E0D2EFED70C2EFCD717
:1003A6000000AB6B9951010A03E198C0ABF005D090
:1003B6009951020A02E197C0ABF00A0E046EABC077
:1003C60000F0D5DE300E0024AC6F0A0E046EABC012
:1003D60000F0CDDE08C000F0300E0024AD6F99515C
:1003E600010A21E1010EAE6F010EAF6F760EB06FFE
:1003F600000EB16F4EDF020EAE6F010EAF6F360EFE
:10040600B06F000EB16F45DF020EAE6F090EAF6F13
:10041600ACC0B0F00FDF020EAE6F0A0EAF6FADC00C
:10042600B0F008DF4CD09951020A21E1010EAE6FFF
:10043600010EAF6F260EB06F000EB16F2ADF020EEF
:10044600AE6F010EAF6F160EB06F000EB16F21DFEB
:10045600020EAE6F090EAF6FACC0B0F0EBDE020E4F
:10046600AE6F0A0EAF6FADC0B0F0E4DE28D0995182
:10047600030A13E1010EAE6F010EAF6F660EB06F89
:10048600000EB16F06DF020EAE6F010EAF6F560E95
:10049600B06F000EB16FFDDE12D0010EAE6F010E11
:1004A600AF6F460EB06F000EB16FF3DE020EAE6F89
:1004B600010EAF6F9A0EB06F000EB16FEADE65D710
:0204C600FFD75E
:10055C0010EE16F0940E006E010E016EC80EF66EC3
:0E056C00040EF76E000EF86E15EC01F0120092
:1004C80052657374616D3A2030307320202020000B
:1004D80054696D65723A20435552544F20202000CC
:1004E80052657374616D3A203030732020202000EB
:1004F80020416775617264616E646F2E2E2E200034
:100508002020202020202020202020202020200003
:1005180046696E616C697A61646F21202020200031
:1005280054696D65723A204C4F4E474F2020200089
:0105380000C2
:1005390020416775617264616E646F2E2E2E2000F2
:0105490000B1
:01054A0000B0
:01054B0000AF
:10054C0020202020202020202020202020202000BF
:020000040030CA
:0E000000000C1F1EFF8381FF0FC00FE00F409A
:00000001FF
