:1000000022EF01F00000000000EF00F0000000000F
:0A0010000000000000000000F3D71C
:10001C000F0E0C6E470E0D6E0D2EFED70C2EFCD750
:06002C00000000001200BC
:06003200000000001200B6
:0A003800210E0D6E0D2EFED71200F2
:1000420029BE02D0819601D0818629BC02D081943A
:1000520001D0818429BA02D0819201D0818229B84B
:1000620002D0819001D081801FB002D0818801D05E
:100072008198818ADDDF819A29B602D0819601D0EA
:10008200818629B402D0819401D0818429B202D020
:10009200819201D0818229B002D0819001D08180E9
:1000A2001FB002D0818801D08198818AC1DF819AF4
:0C00B2001FA002D0B2DF01D0BEDF1200A0
:0C00BE001F9028C029F0BEDF1F80120038
:1000CA00939A93989390939293949396819A819802
:1000DA0081968194819281909CDF9BDF9ADF818255
:1000EA008180818AA1DF819A94DF818A9DDF819A4A
:1000FA0090DF818A99DF819A8CDF8190818A94DFEF
:10010A00819A87DF818A90DF819A81928186818AAA
:10011A008BDF819A7EDF81968180818A85DF819A51
:10012A008190818A81DF819A74DF818A7DDF819A59
:10013A008180818A79DF819A6CDF8190818A74DF7C
:10014A00819A8186818481828180818A6DDF819A08
:06015A0060DF1F801200AF
:100160000900F5CFE6FF0006FBE10106F9E1120008
:100170000FD0800E236E19D0C00E236E16D0940EB1
:10018000236E13D0D40E236E10D0800E236E0DD0AC
:100190002350010AEEE02350020AEEE02350030A46
:1001A000EEE02350040AEEE0F0D72404006E235062
:1001B000002600C023F01F8000C029F042DF1F90FE
:0A01C00025C029F03EDF1F80120069
:1001CA000FD0800E236E19D0C00E236E16D0940E57
:1001DA00236E13D0D40E236E10D0800E236E0DD052
:1001EA002350010AEEE02350020AEEE02350030AEC
:1001FA00EEE02350040AEEE0F0D72404006E235008
:10020A00002600C023F000C029F016DF1F90276ADD
:10021A0027502524E96E000E2620EA6EEE520BE0E6
:10022A0027502524E96E000E2620EA6EEECF28F02C
:0A023A0041DF272AEDD71F801200D4
:10024400480E156E650E166E6C0E176E6C0E186EDB
:100254006F0E196E570E1A6E720E1B6E6C0E1C6E9C
:10026400640E1D6E1E6A206A300E216E226A0F0E05
:10027400C16E070EB46E958026DF010E296EDFDE97
:100284000C0E296EDCDE010E236E010E246E150E9B
:10029400256E000E266E97DF83A057D02250000AE9
:1002A40054E1340E0C6EF10E0D6E0D2EFED70C2E95
:1002B400FCD70000000083A048D0010E226E202A43
:1002C40020500908D8A0206A21D0300E216E3DD0DC
:1002D400310E216E3AD0320E216E37D0330E216E9C
:1002E40034D0340E216E31D0350E216E2ED0360E20
:1002F400216E2BD0370E216E28D0380E216E25D0DA
:10030400390E216E22D0300E216E1FD02050000AEB
:10031400DCE02050010ADCE02050020ADCE020503E
:10032400030ADCE02050040ADCE02050050ADCE08B
:100334002050060ADCE02050070ADCE02050080ABE
:10034400DCE02050090ADCE0DED783A0226A020E3A
:10035400236E010E246E21C025F008DF9DD7FFD740
:020000040030CA
:0E000000000C1F1EFF8381FF0FC00FE00F409A
:00000001FF
