:040000005CEF03F0BE
:1000080000C015F0F2A20DD0F2923C0E276E010E40
:10001800166EC20ED76EF70ED66ED58ECD90000135
:10002800AA81F0A00ED00001F0900A0E276E596A3E
:10003800020E166E0B0ECF6EDC0ECE6ECD80D59EE8
:10004800AA81F2A417D0F294C20ED76EF70ED66E1C
:100058001650010A07E12750000804E22704006E41
:1000680000C027F02750000A03E1030E166ED59E44
:100078000001AA819EA020D09E900B0ECF6EDC0EB0
:10008800CE6E1650020A18E15950010F006E00C0DA
:1000980059F0040E595C10E3596A2750000804E22D
:1000A8002704006E00C027F02750000A03E1030E62
:0E00B800166ECD900001AA8115C000F0110057
:0A00C600210E0D6E0D2EFED7120064
:1000D0000F0E0C6E470E0D6E0D2EFED70C2EFCD79C
:0600E00000000000120008
:0600E60000000000120002
:1000EC000001BBBF02D08C9601D08C86BBBD02D068
:1000FC008C9401D08C84BBBB02D08C9201D08C82AE
:10010C00BBB902D08C9001D08C80AAB302D08C8861
:10011C0001D08C988C8AE1DF8C9ABBB702D08C967C
:10012C0001D08C86BBB502D08C9401D08C84BBB32F
:10013C0002D08C9201D08C82BBB102D08C9001D0B9
:10014C008C80AAB302D08C8801D08C988C8AC5DFA5
:0E015C008C9AAAA302D0B6DF01D0AFDF12004A
:0E016A000001AA93BAC0BBF0BCDFAA8312004A
:0C0178000E0E0D6E0D2EFED700001200C2
:10018400086A080E0C6E003408360450085ED8B0B5
:0E01940002D00826D89000360C2EF5D71200A7
:1001A2000B6A0A6A096A086A0E6A0334083604503E
:1001B200085E0550D8A0053C095E0650D8A0063C52
:1001C2000A5E0750D8A0073C0B5EE86AD8A0010E71
:1001D2000E5E0336070E0C6E0334083609360A36F5
:1001E2000B360E36045003A012D0085E0550D8A07C
:1001F200053C095E0650D8A0063C0A5E0750D8A00E
:10020200073C0B5EE86AD8A0010E0E5E11D00826EC
:100212000550D8B0053C09260650D8B0063C0A263F
:100222000750D8B0073C0B26E86AD8B0010E0E265C
:1002320003360C2ED1D70234083609360A360B366D
:100242000E36045003A012D0085E0550D8A0053C1B
:10025200095E0650D8A0063C0A5E0750D8A0073CAB
:100262000B5EE86AD8A0010E0E5E11D0082605507A
:10027200D8B0053C09260650D8B0063C0A260750DD
:10028200D8B0073C0B26E86AD8B0010E0E2602361B
:10029200070E0C6E0234083609360A360B360E3655
:1002A200045002A012D0085E0550D8A0053C095E99
:1002B2000650D8A0063C0A5E0750D8A0073C0B5E49
:1002C200E86AD8A0010E0E5E11D008260550D8B0FB
:1002D200053C09260650D8B0063C0A260750D8B07D
:1002E200073C0B26E86AD8B0010E0E2602360C2E09
:1002F200D1D70134083609360A360B360E36045089
:1003020002A012D0085E0550D8A0053C095E065036
:10031200D8A0063C0A5E0750D8A0073C0B5EE86AEC
:10032200D8A0010E0E5E11D008260550D8B0053CAB
:1003320009260650D8B0063C0A260750D8B0073C1A
:100342000B26E86AD8B0010E0E260136070E0C6E97
:100352000134083609360A360B360E36045001A02F
:1003620012D0085E0550D8A0053C095E0650D8A000
:10037200063C0A5E0750D8A0073C0B5EE86AD8A08C
:10038200010E0E5E11D008260550D8B0053C092694
:100392000650D8B0063C0A260750D8B0073C0B26B8
:1003A200E86AD8B0010E0E2601360C2ED1D70034E1
:1003B200083609360A360B360E36045001A012D022
:1003C200085E0550D8A0053C095E0650D8A0063C40
:1003D2000A5E0750D8A0073C0B5EE86AD8A0010E5F
:1003E2000E5E11D008260550D8B0053C09260650ED
:1003F200D8B0063C0A260750D8B0073C0B26E86A5C
:10040200D8B0010E0E260036070E0C6E00340836E8
:1004120009360A360B360E36045000A012D0085E9A
:100422000550D8A0053C095E0650D8A0063C0A5EDD
:100432000750D8A0073C0B5EE86AD8A0010E0E5EFA
:1004420011D008260550D8B0053C09260650D8B070
:10045200063C0A260750D8B0073C0B26E86AD8B0FB
:10046200010E0E2600360C2ED1D700B00ED004504D
:1004720008260550D8B0053C09260650D8B0063CDF
:0C0482000A260750D8B0073C0B261200D9
:10048E00959A959895909592959495968C9A8C9818
:10049E008C968C948C928C9014DE13DE12DE8C82F1
:1004AE008C808C8A19DE8C9A0CDE8C8A15DE8C9AE6
:1004BE0008DE8C8A11DE8C9A04DE8C908C8A0CDE1F
:1004CE008C9AFFDD8C8A08DE8C9A8C928C868C8AB4
:1004DE0003DE8C9AF6DD8C968C808C8AFDDD8C9AF0
:1004EE008C908C8AF9DD8C9AECDD8C8AF5DD8C9AF9
:1004FE008C808C8AF1DD8C9AE4DD8C908C8AECDD1C
:10050E008C9A8C868C848C828C808C8AE5DD8C9A7D
:08051E00D8DD0001AA831200E0
:100526008A0E0001B16F060EB26FB50EB36F000EE4
:10053600B46FC26A581C006E0050C116070EC01276
:06054600C08EC28012000D
:10054C000900F5CFE6FF0006FBE10106F9E1120018
:10055C0010D0800E0001B56F1AD0C00EB56F17D039
:10056C00940EB56F14D0D40EB56F11D0800EB56F3C
:10057C000ED00001B551010AECE0B551020AEDE0D4
:10058C00B551030AEDE0B551040AEDE0EFD7B6051D
:10059C00006EB551002600C0B5F000C0BBF0A0DD68
:1005AC00AA93B96BB951B725E96E000EB821EA6E62
:1005BC00EE520BE0B951B725E96E000EB821EA6E88
:0E05CC00EECFBAF0CCDDB92BEDD7AA8312002A
:1005DA0010D0800E0001B56F1AD0C00EB56F17D0BB
:1005EA00940EB56F14D0D40EB56F11D0800EB56FBE
:1005FA000ED00001B551010AECE0B551020AEDE056
:10060A00B551030AEDE0B551040AEDE0EFD7B6059E
:10061A00006EB551002600C0B5F0AA8300C0BBF039
:0E062A0060DDAA93B7C0BBF05CDDAA831200AE
:10063800220E0C6E086A096A0A6A0B6A0C06D8B49C
:100648001FD0D8900B320A320932083203320232F4
:1006580001320032D8A0F2D70C06D8B409D0045021
:1006680008260550092206500A2207500B22EAD70D
:10067800045008260550092206500A2207500B226A
:0206880012005E
:10068A00830EC216B5C000F0003600900036009006
:10069A000050C2126CDDC282C2A201D0FDD7C4CF03
:0E06AA0001F0006AC3500012000E011212008F
:1006B800D1EC06F034DF3B0EC16E070EB46E9380AA
:1006C8009382959E8C9E060ED56EB00ECD6EF288E6
:1006D800F086F28A9D80F18CF18AF28EF28CD3DE5C
:1006E8000C0EBB6FFFDC010EB56F010EB66F380E36
:1006F800B76F000EB86F2EDFB56BC3DF00C0AFF069
:1007080001C0B0F0000E026E036E640E046E000E9F
:10071800056E066E076E8CDF660E046E000E056EA3
:10072800066E076E3ADD00C0ABF001C0ACF002C047
:10073800ADF003C0AEF0000E035C08E1000E025CF1
:1007480005E1020E015C02E1580E005C02E28C8EAB
:100758000ED00001AE51000808E1AD51000805E1D6
:10076800AC51030802E1AB512008D8A08C9E0001CF
:10077800AAB104D01650000A01E1C3D2AA911A0EF8
:100788000C6EF80E0D6E0D2EFED70C2EFCD7000049
:100798001650010AD8A4B2D0010EB56F010EB66F7B
:1007A800170EB76F000EB86FD5DE020EB56F010ECB
:1007B800B66F280EB76F000EB86FCCDE020EB56F9D
:1007C800010EB66F0A0E046E27C000F0D7DC300E9B
:1007D8000024B76FFEDE020EB56F020EB66F0A0E6A
:1007E800046E27C000F0CADC08C000F0300E0024F8
:1007F800B76FEFDE020EB56F090EB66FE80E046E26
:10080800030E056E000E066E076EABC000F0ACC09E
:1008180001F0ADC002F0AEC003F0BFDC300E002422
:10082800B76FD7DE020EB56F0A0EB66F640E046E90
:10083800000E056E066E076EABC000F0ACC001F08E
:10084800ADC002F0AEC003F0A8DC0A0E046E000EC4
:10085800056E066E076EA1DC08C000F009C001F045
:100868000AC002F00BC003F0300E0024B76FB1DEEF
:10087800020EB56F0B0EB66F0A0E046E000E056EF3
:10088800066E076EABC000F0ACC001F0ADC002F060
:10089800AEC003F082DC0A0E046E000E056E066E12
:1008A800076E7BDC08C000F009C001F00AC002F046
:1008B8000BC003F0300E0024B76F8BDE020EB56F4D
:1008C8000D0EB66F0A0E046E000E056E066E076EEC
:1008D800ABC000F0ACC001F0ADC002F0AEC003F098
:1008E8005CDC08C000F009C001F00AC002F00BC0CF
:1008F80003F0300E0024B76F6CDEF6D11650020AF2
:10090800D8A4B7D0010EB56F010EB66F6A0EB76FD7
:10091800000EB86F1FDE020EB56F010EB66F5A0ECD
:10092800B76F000EB86F16DE020EB56F010EB66F08
:100938000A0E046E27C000F021DC300E0024B76FC9
:1009480048DE020EB56F020EB66F0A0E046E27C09F
:1009580000F014DC08C000F0300E0024B76F39DE58
:10096800020EB56F090EB66FE80E046E030E056E23
:10097800000E066E076EABC000F0ACC001F0ADC053
:1009880002F0AEC003F009DC300E0024B76F21DEA0
:10099800020EB56F0A0EB66F640E046E000E056E79
:1009A800066E076EABC000F0ACC001F0ADC002F03F
:1009B800AEC003F0D1EC00F00A0E046E000E056E16
:1009C800066E076ED1EC00F008C000F009C001F017
:1009D8000AC002F00BC003F0300E0024B76FF9DD37
:1009E800020EB56F0B0EB66F0A0E046E000E056E82
:1009F800066E076EABC000F0ACC001F0ADC002F0EF
:100A0800AEC003F0D1EC00F00A0E046E000E056EC5
:100A1800066E076ED1EC00F008C000F009C001F0C6
:100A28000AC002F00BC003F0300E0024B76FD1DD0E
:100A3800020EB56F0D0EB66F0A0E046E000E056E2F
:100A4800066E076EABC000F0ACC001F0ADC002F09E
:100A5800AEC003F0D1EC00F008C000F009C001F00E
:100A68000AC002F00BC003F0300E0024B76FB1DDEE
:100A78003BD11650030AD8A49CD0010EB56F010EC5
:100A8800B66F7A0EB76F000EB86F64DD020EB56FE1
:100A9800010EB66F9A0EB76F000EB86F5BDD020ECF
:100AA800B56F010EB66FE80E046E030E056E000EEC
:100AB800066E076EABC000F0ACC001F0ADC002F02E
:100AC800AEC003F0D1EC00F0300E0024B76F81DD2A
:100AD800020EB56F020EB66F640E046E000E056E40
:100AE800066E076EABC000F0ACC001F0ADC002F0FE
:100AF800AEC003F0D1EC00F00A0E046E000E056ED5
:100B0800066E076ED1EC00F008C000F009C001F0D5
:100B18000AC002F00BC003F0300E0024B76F59DD95
:100B2800020EB56F030EB66F0A0E046E000E056E48
:100B3800066E076EABC000F0ACC001F0ADC002F0AD
:100B4800AEC003F0D1EC00F00A0E046E000E056E84
:100B5800066E076ED1EC00F008C000F009C001F085
:100B68000AC002F00BC003F0300E0024B76F31DD6D
:100B7800020EB56F050EB66F0A0E046E000E056EF6
:100B8800066E076EABC000F0ACC001F0ADC002F05D
:100B9800AEC003F0D1EC00F008C000F009C001F0CD
:100BA8000AC002F00BC003F0300E0024B76F11DD4D
:100BB8009BD0010EB56F010EB66F8A0EB76F000E8F
:100BC800B86FC8DC020EB56F010EB66F480EB76F6E
:100BD800000EB86FBFDC020EB56F010EB66FE80EDF
:100BE800046E030E056E000E066E076EABC000F0B5
:100BF800ACC001F0ADC002F0AEC003F0D1EC00F023
:100C0800300E0024B76FE5DC020EB56F020EB66F2A
:100C1800640E046E000E056E066E076EABC000F023
:100C2800ACC001F0ADC002F0AEC003F0D1EC00F0F2
:100C38000A0E046E000E056E066E076ED1EC00F00B
:100C480008C000F009C001F00AC002F00BC003F0B0
:100C5800300E0024B76FBDDC020EB56F030EB66F01
:100C68000A0E046E000E056E066E076EABC000F02D
:100C7800ACC001F0ADC002F0AEC003F0D1EC00F0A2
:100C88000A0E046E000E056E066E076ED1EC00F0BB
:100C980008C000F009C001F00AC002F00BC003F060
:100CA800300E0024B76F95DC020EB56F050EB66FD7
:100CB8000A0E046E000E056E066E076EABC000F0DD
:100CC800ACC001F0ADC002F0AEC003F0D1EC00F052
:100CD80008C000F009C001F00AC002F00BC003F020
:100CE800300E0024B76F75DC020E0B6E040E0C6E0E
:100CF800BA0E0D6E0D2EFED70C2EFCD70B2EFAD782
:060D08000000FAD4FFD741
:100DA20010EE16F0940E006E010E016E0E0EF66E2F
:0E0DB2000D0EF76E000EF86EA6EC02F01200A9
:010D0E0000E4
:100D0F002054696D65723A204C4F4E474F2020009A
:010D1F0000D3
:100D200030307320202020203030302E30204300FF
:100D300020416775617264616E646F2E2E2E2000F3
:100D40003030302E30204320202020202020200052
:010D50003072
:010D510000A1
:100D520030307320202020203030302E30204300CD
:100D62002054696D65723A20435552544F20200039
:100D72002046696E616C697A61646F2120202000CF
:100D820020416775617264616E646F2E2E2E2000A1
:100D92003030302E30204320202020202020200000
:020000040030CA
:0E000000000C1F1EFF8381FF0FC00FE00F409A
:00000001FF
