:0400000000EF02F01B
:1000080000C015F0F2A20DD0F2923C0E1B6E010E4C
:10001800336EC20ED76EF70ED66ED58ECD90000118
:100028007883F0A00ED00001F0900A0E1B6E1D6AB6
:10003800020E336E0B0ECF6EDC0ECE6ECD80D59ECB
:100048007883F2A417D0F294C20ED76EF70ED66E4C
:100058003350010A07E11B50000804E21B04006E3C
:1000680000C01BF01B50000A03E1030E336ED59E3F
:10007800000178839EA020D09E900B0ECF6EDC0EE0
:10008800CE6E3350020A18E11D50010F006E00C0F9
:100098001DF0040E1D5C10E31D6A1B50000804E2ED
:1000A8001B04006E00C01BF01B50000A03E1030E86
:0E00B800336ECD900001788315C000F011006A
:0A00C600210E0D6E0D2EFED7120064
:1000D0000F0E0C6E470E0D6E0D2EFED70C2EFCD79C
:0600E00000000000120008
:0600E60000000000120002
:1000EC00000183BF02D08C9601D08C8683BD02D0D8
:1000FC008C9401D08C8483BB02D08C9201D08C82E6
:10010C0083B902D08C9001D08C8078B102D08C88CD
:10011C0001D08C988C8AE1DF8C9A83B702D08C96B4
:10012C0001D08C8683B502D08C9401D08C8483B39F
:10013C0002D08C9201D08C8283B102D08C9001D0F1
:10014C008C8078B102D08C8801D08C988C8AC5DFD9
:0E015C008C9A78A102D0B6DF01D0AFDF12007E
:0E016A000001789182C083F0BCDF7881120022
:0C0178000E0E0D6E0D2EFED700001200C2
:10018400086A080E0C6E003408360450085ED8B0B5
:0E01940002D00826D89000360C2EF5D71200A7
:1001A200086A096A100E0C6E0134083609360450CA
:1001B200085E0550D8A0053C095ED8B007D00450AF
:1001C20008260550D8B0053C0926D89000360136DD
:0601D2000C2EEAD712001A
:1001D800959A959895909592959495968C9A8C98D1
:1001E8008C968C948C928C906FDF6EDF6DDF8C8296
:1001F8008C808C8A74DF8C9A67DF8C8A70DF8C9A8B
:1002080063DF8C8A6CDF8C9A5FDF8C908C8A67DF67
:100218008C9A5ADF8C8A63DF8C9A8C928C868C8AB3
:100228005EDF8C9A51DF8C968C808C8A58DF8C9A92
:100238008C908C8A54DF8C9A47DF8C8A50DF8C9A9A
:100248008C808C8A4CDF8C9A3FDF8C908C8A47DFBD
:100258008C9A8C868C848C828C808C8A40DF8C9AD9
:0802680033DF00017881120070
:10027000D20E0001746F030E756F7D0E766F000E47
:10028000776FC26A1C1C006E0050C116070EC012A8
:06029000C08EC2801200C6
:100296000900F5CFE6FF0006FBE10106F9E11200D1
:1002A60010D0800E00017D6F1AD0C00E7D6F17D062
:1002B600940E7D6F14D0D40E7D6F11D0800E7D6F9D
:1002C6000ED000017D51010AECE07D51020AEDE0FD
:1002D6007D51030AEDE07D51040AEDE0EFD77E057E
:1002E600006E7D51002600C07DF000C083F0FBDE6D
:1002F6007891816B81517F25E96E000E8021EA6E2F
:10030600EE520BE081517F25E96E000E8021EA6EE8
:0E031600EECF82F027DF812BEDD77881120029
:1003240010D0800E00017D6F1AD0C00E7D6F17D0E3
:10033400940E7D6F14D0D40E7D6F11D0800E7D6F1E
:100344000ED000017D51010AECE07D51020AEDE07E
:100354007D51030AEDE07D51040AEDE0EFD77E05FF
:10036400006E7D51002600C07DF0788100C083F0CE
:0E037400BBDE78917FC083F0B7DE7881120087
:100382000B6A0A6A096A00500402F4CF09F0F3CF3B
:1003920008F001500502F4CF0BF0F3CF0AF0005041
:1003A2000502F3500926F4500A22E86A0B22015092
:1003B2000402F3500926F4500A22E86A0B2208C00C
:1003C20000F009C001F00AC002F00BC003F01200F5
:1003D200830EC2167DC000F00036009000360090F9
:1003E2000050C212C8DEC282C2A201D0FDD7C4CF61
:0E03F20001F0006AC3500012000E011212004A
:1004000035EC03F035DF3B0EC16E070EB46E938002
:100410009382959E8C9E060ED56EB00ECD6EF288A0
:10042000F086F28A9D80F18CF18AF28EF28CD4DE15
:100430000C0E836F5BDE010E7D6F010E7E6F640E0E
:100440007F6F000E806F2FDF7D6BC3DF00C07BF0FE
:1004500001C07CF0640E046E000E056E92DF660E25
:10046000046E000E056E9DDE00C079F001C07AF0CA
:10047000020E015C02E1580E005C02E28C8E08D094
:1004800000017A51030802E179512008D8A08C9E1E
:10049000000178B304D03350000A01E1B5D078935D
:1004A0003350010A0AE1010E7D6F010E7E6F230EAB
:1004B0007F6F000E806FF7DE23D03350020A0AE10F
:1004C000010E7D6F010E7E6F540E7F6F000E806FE8
:1004D000EADE16D03350030A0AE1010E7D6F010EE9
:1004E0007E6F440E7F6F000E806FDDDE09D0010E3F
:1004F0007D6F010E7E6F340E7F6F000E806FD3DE36
:10050000020E7D6F010E7E6F0A0E046E1BC000F09E
:1005100039DE300E00247F6F05DF020E7D6F020E84
:100520007E6F0A0E046E1BC000F02CDE08C000F0C7
:10053000300E00247F6FF6DE020E7D6F030E7E6F9D
:10054000180E7F6F000E806FAEDE020E7D6F060EFE
:100550007E6F640E046E000E056E79C000F07AC0E6
:1005600001F01FDE300E00247F6FDCDE020E7D6F97
:10057000070E7E6F0A0E046E000E056E79C000F045
:100580007AC001F00EDE0A0E046E000E056E09DE62
:1005900008C000F009C001F0300E00247F6FC2DEF9
:1005A000020E7D6F080E7E6F160E7F6F000E806F3D
:1005B0007ADE020E7D6F090E7E6F0A0E046E000E4B
:1005C000056E79C000F07AC001F0EBDD08C000F0E4
:1005D00009C001F0300E00247F6FA4DE020E7D6F93
:1005E0000A0E7E6F1E0E7F6F000E806F5CDE020EA5
:1005F0000B6E040E0C6EBA0E0D6E0D2EFED70C2E69
:0C060000FCD70B2EFAD700001FD7FFD745
:10066A0010EE16F05E0E006E010E016E0C0EF66EA6
:0E067A00060EF76E000EF86E4BEC01F012004B
:02060C002E00BE
:03060E0073200056
:0106110000E8
:0106120030B7
:0106130000E6
:0506140020432020003E
:1006190054696D65723A204C4F4E474F2020200097
:0106290000D0
:10062A0020416775617264616E646F2E2E2E200000
:10063A0046696E616C697A61646F2120202020000E
:10064A0054696D65723A20435552544F2020200058
:10065A0020416775617264616E646F2E2E2E2000D0
:020000040030CA
:0E000000000C1F1EFF8381FF0FC00FE00F409A
:00000001FF
